{
  "contractName": "EventContract",
  "abi": [
    {
      "inputs": [
        {
          "internalType": "uint256",
          "name": "",
          "type": "uint256"
        }
      ],
      "name": "events",
      "outputs": [
        {
          "internalType": "address",
          "name": "organizer",
          "type": "address"
        },
        {
          "internalType": "string",
          "name": "name",
          "type": "string"
        },
        {
          "internalType": "uint256",
          "name": "date",
          "type": "uint256"
        },
        {
          "internalType": "uint256",
          "name": "price",
          "type": "uint256"
        },
        {
          "internalType": "uint256",
          "name": "ticketCount",
          "type": "uint256"
        },
        {
          "internalType": "uint256",
          "name": "ticketRemain",
          "type": "uint256"
        }
      ],
      "stateMutability": "view",
      "type": "function",
      "constant": true
    },
    {
      "inputs": [],
      "name": "nextId",
      "outputs": [
        {
          "internalType": "uint256",
          "name": "",
          "type": "uint256"
        }
      ],
      "stateMutability": "view",
      "type": "function",
      "constant": true
    },
    {
      "inputs": [
        {
          "internalType": "address",
          "name": "",
          "type": "address"
        },
        {
          "internalType": "uint256",
          "name": "",
          "type": "uint256"
        }
      ],
      "name": "tickets",
      "outputs": [
        {
          "internalType": "uint256",
          "name": "",
          "type": "uint256"
        }
      ],
      "stateMutability": "view",
      "type": "function",
      "constant": true
    },
    {
      "inputs": [
        {
          "internalType": "string",
          "name": "name",
          "type": "string"
        },
        {
          "internalType": "uint256",
          "name": "date",
          "type": "uint256"
        },
        {
          "internalType": "uint256",
          "name": "price",
          "type": "uint256"
        },
        {
          "internalType": "uint256",
          "name": "ticketCount",
          "type": "uint256"
        }
      ],
      "name": "createEvent",
      "outputs": [],
      "stateMutability": "nonpayable",
      "type": "function"
    },
    {
      "inputs": [
        {
          "internalType": "uint256",
          "name": "id",
          "type": "uint256"
        },
        {
          "internalType": "uint256",
          "name": "quantity",
          "type": "uint256"
        }
      ],
      "name": "buyTicket",
      "outputs": [],
      "stateMutability": "payable",
      "type": "function",
      "payable": true
    },
    {
      "inputs": [
        {
          "internalType": "uint256",
          "name": "id",
          "type": "uint256"
        },
        {
          "internalType": "uint256",
          "name": "quantity",
          "type": "uint256"
        },
        {
          "internalType": "address",
          "name": "to",
          "type": "address"
        }
      ],
      "name": "transferTicket",
      "outputs": [],
      "stateMutability": "nonpayable",
      "type": "function"
    }
  ],
  "bytecode": "0x608060405234801561001057600080fd5b50611382806100206000396000f3fe6080604052600436106100555760003560e01c80630374ab0b1461005a5780630b79143014610083578063298ec208146100c557806361b8ce8c146100e1578063dae7a13c1461010c578063f086a09b14610149575b600080fd5b34801561006657600080fd5b50610081600480360381019061007c91906108ed565b610172565b005b34801561008f57600080fd5b506100aa60048036038101906100a59190610975565b610339565b6040516100bc96959493929190610a82565b60405180910390f35b6100df60048036038101906100da9190610aea565b61041d565b005b3480156100ed57600080fd5b506100f6610608565b6040516101039190610b2a565b60405180910390f35b34801561011857600080fd5b50610133600480360381019061012e9190610b71565b61060e565b6040516101409190610b2a565b60405180910390f35b34801561015557600080fd5b50610170600480360381019061016b9190610bb1565b610633565b005b4283116101b4576040517f08c379a00000000000000000000000000000000000000000000000000000000081526004016101ab90610c50565b60405180910390fd5b600081116101f7576040517f08c379a00000000000000000000000000000000000000000000000000000000081526004016101ee90610ce2565b60405180910390fd5b6040518060c001604052803373ffffffffffffffffffffffffffffffffffffffff16815260200186868080601f016020809104026020016040519081016040528093929190818152602001838380828437600081840152601f19601f82011690508083019250505050505050815260200184815260200183815260200182815260200182815250600080600254815260200190815260200160002060008201518160000160006101000a81548173ffffffffffffffffffffffffffffffffffffffff021916908373ffffffffffffffffffffffffffffffffffffffff16021790555060208201518160010190816102ee9190610f3d565b5060408201518160020155606082015181600301556080820151816004015560a082015181600501559050506002600081548092919061032d9061103e565b91905055505050505050565b60006020528060005260406000206000915090508060000160009054906101000a900473ffffffffffffffffffffffffffffffffffffffff169080600101805461038290610d60565b80601f01602080910402602001604051908101604052809291908181526020018280546103ae90610d60565b80156103fb5780601f106103d0576101008083540402835291602001916103fb565b820191906000526020600020905b8154815290600101906020018083116103de57829003601f168201915b5050505050908060020154908060030154908060040154908060050154905086565b60008060008481526020019081526020016000206002015403610475576040517f08c379a000000000000000000000000000000000000000000000000000000000815260040161046c906110d2565b60405180910390fd5b6000808381526020019081526020016000206002015442106104cc576040517f08c379a00000000000000000000000000000000000000000000000000000000081526004016104c39061113e565b60405180910390fd5b6000806000848152602001908152602001600020905060008282600301546104f4919061115e565b905080341015610539576040517f08c379a0000000000000000000000000000000000000000000000000000000008152600401610530906111ec565b60405180910390fd5b8282600501541015610580576040517f08c379a000000000000000000000000000000000000000000000000000000000815260040161057790611258565b60405180910390fd5b828260050160008282546105949190611278565b9250508190555082600160003373ffffffffffffffffffffffffffffffffffffffff1673ffffffffffffffffffffffffffffffffffffffff168152602001908152602001600020600086815260200190815260200160002060008282546105fb91906112ac565b9250508190555050505050565b60025481565b6001602052816000526040600020602052806000526040600020600091509150505481565b6000806000858152602001908152602001600020600201540361068b576040517f08c379a0000000000000000000000000000000000000000000000000000000008152600401610682906110d2565b60405180910390fd5b6000808481526020019081526020016000206002015442106106e2576040517f08c379a00000000000000000000000000000000000000000000000000000000081526004016106d99061113e565b60405180910390fd5b81600160003373ffffffffffffffffffffffffffffffffffffffff1673ffffffffffffffffffffffffffffffffffffffff1681526020019081526020016000206000858152602001908152602001600020541015610775576040517f08c379a000000000000000000000000000000000000000000000000000000000815260040161076c9061132c565b60405180910390fd5b81600160003373ffffffffffffffffffffffffffffffffffffffff1673ffffffffffffffffffffffffffffffffffffffff168152602001908152602001600020600085815260200190815260200160002060008282546107d59190611278565b9250508190555081600160008373ffffffffffffffffffffffffffffffffffffffff1673ffffffffffffffffffffffffffffffffffffffff1681526020019081526020016000206000858152602001908152602001600020600082825461083c91906112ac565b92505081905550505050565b600080fd5b600080fd5b600080fd5b600080fd5b600080fd5b60008083601f84011261087757610876610852565b5b8235905067ffffffffffffffff81111561089457610893610857565b5b6020830191508360018202830111156108b0576108af61085c565b5b9250929050565b6000819050919050565b6108ca816108b7565b81146108d557600080fd5b50565b6000813590506108e7816108c1565b92915050565b60008060008060006080868803121561090957610908610848565b5b600086013567ffffffffffffffff8111156109275761092661084d565b5b61093388828901610861565b95509550506020610946888289016108d8565b9350506040610957888289016108d8565b9250506060610968888289016108d8565b9150509295509295909350565b60006020828403121561098b5761098a610848565b5b6000610999848285016108d8565b91505092915050565b600073ffffffffffffffffffffffffffffffffffffffff82169050919050565b60006109cd826109a2565b9050919050565b6109dd816109c2565b82525050565b600081519050919050565b600082825260208201905092915050565b60005b83811015610a1d578082015181840152602081019050610a02565b60008484015250505050565b6000601f19601f8301169050919050565b6000610a45826109e3565b610a4f81856109ee565b9350610a5f8185602086016109ff565b610a6881610a29565b840191505092915050565b610a7c816108b7565b82525050565b600060c082019050610a9760008301896109d4565b8181036020830152610aa98188610a3a565b9050610ab86040830187610a73565b610ac56060830186610a73565b610ad26080830185610a73565b610adf60a0830184610a73565b979650505050505050565b60008060408385031215610b0157610b00610848565b5b6000610b0f858286016108d8565b9250506020610b20858286016108d8565b9150509250929050565b6000602082019050610b3f6000830184610a73565b92915050565b610b4e816109c2565b8114610b5957600080fd5b50565b600081359050610b6b81610b45565b92915050565b60008060408385031215610b8857610b87610848565b5b6000610b9685828601610b5c565b9250506020610ba7858286016108d8565b9150509250929050565b600080600060608486031215610bca57610bc9610848565b5b6000610bd8868287016108d8565b9350506020610be9868287016108d8565b9250506040610bfa86828701610b5c565b9150509250925092565b7f4576656e742064617465206d75737420626520696e2074686520667574757265600082015250565b6000610c3a6020836109ee565b9150610c4582610c04565b602082019050919050565b60006020820190508181036000830152610c6981610c2d565b9050919050565b7f5469636b657420636f756e74206d75737420626520677265617465722074686160008201527f6e20300000000000000000000000000000000000000000000000000000000000602082015250565b6000610ccc6023836109ee565b9150610cd782610c70565b604082019050919050565b60006020820190508181036000830152610cfb81610cbf565b9050919050565b7f4e487b7100000000000000000000000000000000000000000000000000000000600052604160045260246000fd5b7f4e487b7100000000000000000000000000000000000000000000000000000000600052602260045260246000fd5b60006002820490506001821680610d7857607f821691505b602082108103610d8b57610d8a610d31565b5b50919050565b60008190508160005260206000209050919050565b60006020601f8301049050919050565b600082821b905092915050565b600060088302610df37fffffffffffffffffffffffffffffffffffffffffffffffffffffffffffffffff82610db6565b610dfd8683610db6565b95508019841693508086168417925050509392505050565b6000819050919050565b6000610e3a610e35610e30846108b7565b610e15565b6108b7565b9050919050565b6000819050919050565b610e5483610e1f565b610e68610e6082610e41565b848454610dc3565b825550505050565b600090565b610e7d610e70565b610e88818484610e4b565b505050565b5b81811015610eac57610ea1600082610e75565b600181019050610e8e565b5050565b601f821115610ef157610ec281610d91565b610ecb84610da6565b81016020851015610eda578190505b610eee610ee685610da6565b830182610e8d565b50505b505050565b600082821c905092915050565b6000610f1460001984600802610ef6565b1980831691505092915050565b6000610f2d8383610f03565b9150826002028217905092915050565b610f46826109e3565b67ffffffffffffffff811115610f5f57610f5e610d02565b5b610f698254610d60565b610f74828285610eb0565b600060209050601f831160018114610fa75760008415610f95578287015190505b610f9f8582610f21565b865550611007565b601f198416610fb586610d91565b60005b82811015610fdd57848901518255600182019150602085019450602081019050610fb8565b86831015610ffa5784890151610ff6601f891682610f03565b8355505b6001600288020188555050505b505050505050565b7f4e487b7100000000000000000000000000000000000000000000000000000000600052601160045260246000fd5b6000611049826108b7565b91507fffffffffffffffffffffffffffffffffffffffffffffffffffffffffffffffff820361107b5761107a61100f565b5b600182019050919050565b7f4576656e7420646f6573206e6f74206578697374000000000000000000000000600082015250565b60006110bc6014836109ee565b91506110c782611086565b602082019050919050565b600060208201905081810360008301526110eb816110af565b9050919050565b7f4576656e742068617320616c7265616479206f63637572726564000000000000600082015250565b6000611128601a836109ee565b9150611133826110f2565b602082019050919050565b600060208201905081810360008301526111578161111b565b9050919050565b6000611169826108b7565b9150611174836108b7565b9250828202611182816108b7565b915082820484148315176111995761119861100f565b5b5092915050565b7f496e73756666696369656e742045746865722073656e74000000000000000000600082015250565b60006111d66017836109ee565b91506111e1826111a0565b602082019050919050565b60006020820190508181036000830152611205816111c9565b9050919050565b7f4e6f7420656e6f756768207469636b65747320617661696c61626c6500000000600082015250565b6000611242601c836109ee565b915061124d8261120c565b602082019050919050565b6000602082019050818103600083015261127181611235565b9050919050565b6000611283826108b7565b915061128e836108b7565b92508282039050818111156112a6576112a561100f565b5b92915050565b60006112b7826108b7565b91506112c2836108b7565b92508282019050808211156112da576112d961100f565b5b92915050565b7f496e73756666696369656e74207469636b657473206f776e6564000000000000600082015250565b6000611316601a836109ee565b9150611321826112e0565b602082019050919050565b6000602082019050818103600083015261134581611309565b905091905056fea2646970667358221220824d6dd1039311198244cc2eb6264773f15f21680c5c45e4a6df347eee6c29ff64736f6c63430008120033",
  "immutableReferences": {},
  "source": "// SPDX-License-Identifier: Unlicense\r\npragma solidity ^0.8.18;\r\n\r\ncontract EventContract {\r\n    struct Event {\r\n        address organizer;\r\n        string name;\r\n        uint date;\r\n        uint price;\r\n        uint ticketCount;\r\n        uint ticketRemain;\r\n    }\r\n\r\n    mapping(uint => Event) public events;\r\n    mapping(address => mapping(uint => uint)) public tickets;\r\n    uint public nextId;\r\n\r\n    function createEvent(\r\n        string calldata name,\r\n        uint date,\r\n        uint price,\r\n        uint ticketCount\r\n    ) external {\r\n        require(date > block.timestamp, \"Event date must be in the future\");\r\n        require(ticketCount > 0, \"Ticket count must be greater than 0\");\r\n\r\n        events[nextId] = Event(\r\n            msg.sender,\r\n            name,\r\n            date,\r\n            price,\r\n            ticketCount,\r\n            ticketCount\r\n        );\r\n        nextId++;\r\n    }\r\n\r\n    function buyTicket(uint id, uint quantity) external payable {\r\n        require(events[id].date != 0, \"Event does not exist\");\r\n        require(\r\n            block.timestamp < events[id].date,\r\n            \"Event has already occurred\"\r\n        );\r\n\r\n        Event storage _event = events[id];\r\n        uint totalCostInWei = _event.price * quantity;\r\n\r\n        require(msg.value >= totalCostInWei, \"Insufficient Ether sent\");\r\n        require(\r\n            _event.ticketRemain >= quantity,\r\n            \"Not enough tickets available\"\r\n        );\r\n\r\n        _event.ticketRemain -= quantity;\r\n        tickets[msg.sender][id] += quantity;\r\n    }\r\n\r\n    function transferTicket(uint id, uint quantity, address to) external {\r\n        require(events[id].date != 0, \"Event does not exist\");\r\n        require(\r\n            block.timestamp < events[id].date,\r\n            \"Event has already occurred\"\r\n        );\r\n        require(\r\n            tickets[msg.sender][id] >= quantity,\r\n            \"Insufficient tickets owned\"\r\n        );\r\n\r\n        tickets[msg.sender][id] -= quantity;\r\n        tickets[to][id] += quantity;\r\n    }\r\n}\r\n",
  "sourcePath": "E:\\event-ticketing-dapp\\truffle-backend\\contracts\\EventContract.sol",
  "compiler": {
    "name": "solc",
    "version": "0.8.18+commit.87f61d96.Emscripten.clang"
  },
  "schemaVersion": "3.4.16",
  "updatedAt": "2025-04-17T13:43:11.920Z",
  "networkType": "ethereum",
  "devdoc": {
    "kind": "dev",
    "methods": {},
    "version": 1
  },
  "userdoc": {
    "kind": "user",
    "methods": {},
    "version": 1
  }
}